{
  "_format": "hh-sol-artifact-1",
  "contractName": "PhucHwaContract",
  "sourceName": "contracts/PhucHwaContract.sol",
  "abi": [
    {
      "inputs": [],
      "stateMutability": "nonpayable",
      "type": "constructor"
    },
    {
      "anonymous": false,
      "inputs": [
        {
          "indexed": true,
          "internalType": "string",
          "name": "matchingId",
          "type": "string"
        },
        {
          "indexed": true,
          "internalType": "address",
          "name": "elderlyAddress",
          "type": "address"
        },
        {
          "indexed": true,
          "internalType": "address",
          "name": "nurseAddress",
          "type": "address"
        },
        {
          "indexed": false,
          "internalType": "uint256",
          "name": "timestamp",
          "type": "uint256"
        }
      ],
      "name": "ContractSignedOnChain",
      "type": "event"
    },
    {
      "inputs": [],
      "name": "adminAddress",
      "outputs": [
        {
          "internalType": "address",
          "name": "",
          "type": "address"
        }
      ],
      "stateMutability": "view",
      "type": "function"
    },
    {
      "inputs": [
        {
          "internalType": "string",
          "name": "_matchingId",
          "type": "string"
        }
      ],
      "name": "getSignedContractInfo",
      "outputs": [
        {
          "internalType": "string",
          "name": "matchingId",
          "type": "string"
        },
        {
          "internalType": "address",
          "name": "elderlyEVMAddress",
          "type": "address"
        },
        {
          "internalType": "address",
          "name": "nurseEVMAddress",
          "type": "address"
        },
        {
          "internalType": "uint256",
          "name": "signedTimestamp",
          "type": "uint256"
        },
        {
          "internalType": "bool",
          "name": "isConfirmed",
          "type": "bool"
        }
      ],
      "stateMutability": "view",
      "type": "function"
    },
    {
      "inputs": [
        {
          "internalType": "string",
          "name": "",
          "type": "string"
        }
      ],
      "name": "isMatchingIdSigned",
      "outputs": [
        {
          "internalType": "bool",
          "name": "",
          "type": "bool"
        }
      ],
      "stateMutability": "view",
      "type": "function"
    },
    {
      "inputs": [
        {
          "internalType": "string",
          "name": "_matchingId",
          "type": "string"
        },
        {
          "internalType": "address",
          "name": "_elderlyEVMAddress",
          "type": "address"
        },
        {
          "internalType": "address",
          "name": "_nurseEVMAddress",
          "type": "address"
        }
      ],
      "name": "recordSignedContract",
      "outputs": [],
      "stateMutability": "nonpayable",
      "type": "function"
    },
    {
      "inputs": [
        {
          "internalType": "string",
          "name": "",
          "type": "string"
        }
      ],
      "name": "signedContracts",
      "outputs": [
        {
          "internalType": "string",
          "name": "matchingId",
          "type": "string"
        },
        {
          "internalType": "address",
          "name": "elderlyEVMAddress",
          "type": "address"
        },
        {
          "internalType": "address",
          "name": "nurseEVMAddress",
          "type": "address"
        },
        {
          "internalType": "uint256",
          "name": "signedTimestamp",
          "type": "uint256"
        },
        {
          "internalType": "bool",
          "name": "isConfirmed",
          "type": "bool"
        }
      ],
      "stateMutability": "view",
      "type": "function"
    }
  ],
  "bytecode": "0x6080604052348015600f57600080fd5b5033600260006101000a81548173ffffffffffffffffffffffffffffffffffffffff021916908373ffffffffffffffffffffffffffffffffffffffff16021790555061113a806100606000396000f3fe608060405234801561001057600080fd5b50600436106100575760003560e01c80630952a5781461005c5780638c364d1e14610090578063dc0debe0146100c0578063f2f1fc53146100f4578063fc6f946814610110575b600080fd5b61007660048036038101906100719190610908565b61012e565b604051610087959493929190610a45565b60405180910390f35b6100aa60048036038101906100a59190610908565b61024f565b6040516100b79190610a9f565b60405180910390f35b6100da60048036038101906100d59190610908565b610285565b6040516100eb959493929190610a45565b60405180910390f35b61010e60048036038101906101099190610ae6565b6103b3565b005b610118610788565b6040516101259190610b55565b60405180910390f35b60008180516020810182018051848252602083016020850120818352809550505050505060009150905080600001805461016790610b9f565b80601f016020809104026020016040519081016040528092919081815260200182805461019390610b9f565b80156101e05780601f106101b5576101008083540402835291602001916101e0565b820191906000526020600020905b8154815290600101906020018083116101c357829003601f168201915b5050505050908060010160009054906101000a900473ffffffffffffffffffffffffffffffffffffffff16908060020160009054906101000a900473ffffffffffffffffffffffffffffffffffffffff16908060030154908060040160009054906101000a900460ff16905085565b6001818051602081018201805184825260208301602085012081835280955050505050506000915054906101000a900460ff1681565b60606000806000806000808760405161029e9190610c0c565b90815260200160405180910390209050806000018160010160009054906101000a900473ffffffffffffffffffffffffffffffffffffffff168260020160009054906101000a900473ffffffffffffffffffffffffffffffffffffffff1683600301548460040160009054906101000a900460ff1684805461031f90610b9f565b80601f016020809104026020016040519081016040528092919081815260200182805461034b90610b9f565b80156103985780601f1061036d57610100808354040283529160200191610398565b820191906000526020600020905b81548152906001019060200180831161037b57829003601f168201915b50505050509450955095509550955095505091939590929450565b600260009054906101000a900473ffffffffffffffffffffffffffffffffffffffff1673ffffffffffffffffffffffffffffffffffffffff163373ffffffffffffffffffffffffffffffffffffffff1614610443576040517f08c379a000000000000000000000000000000000000000000000000000000000815260040161043a90610c95565b60405180910390fd5b6001836040516104539190610c0c565b908152602001604051809103902060009054906101000a900460ff16156104af576040517f08c379a00000000000000000000000000000000000000000000000000000000081526004016104a690610d27565b60405180910390fd5b600073ffffffffffffffffffffffffffffffffffffffff168273ffffffffffffffffffffffffffffffffffffffff160361051e576040517f08c379a000000000000000000000000000000000000000000000000000000000815260040161051590610db9565b60405180910390fd5b600073ffffffffffffffffffffffffffffffffffffffff168173ffffffffffffffffffffffffffffffffffffffff160361058d576040517f08c379a000000000000000000000000000000000000000000000000000000000815260040161058490610e4b565b60405180910390fd5b6040518060a001604052808481526020018373ffffffffffffffffffffffffffffffffffffffff1681526020018273ffffffffffffffffffffffffffffffffffffffff168152602001428152602001600115158152506000846040516105f39190610c0c565b908152602001604051809103902060008201518160000190816106169190611017565b5060208201518160010160006101000a81548173ffffffffffffffffffffffffffffffffffffffff021916908373ffffffffffffffffffffffffffffffffffffffff16021790555060408201518160020160006101000a81548173ffffffffffffffffffffffffffffffffffffffff021916908373ffffffffffffffffffffffffffffffffffffffff1602179055506060820151816003015560808201518160040160006101000a81548160ff021916908315150217905550905050600180846040516106e39190610c0c565b908152602001604051809103902060006101000a81548160ff0219169083151502179055508073ffffffffffffffffffffffffffffffffffffffff168273ffffffffffffffffffffffffffffffffffffffff16846040516107449190610c0c565b60405180910390207f80d6b8a3074334e131e2f88f80d660dcbcc13ab8c1a167912a8dc7550a2dae0c4260405161077b91906110e9565b60405180910390a4505050565b600260009054906101000a900473ffffffffffffffffffffffffffffffffffffffff1681565b6000604051905090565b600080fd5b600080fd5b600080fd5b600080fd5b6000601f19601f8301169050919050565b7f4e487b7100000000000000000000000000000000000000000000000000000000600052604160045260246000fd5b610815826107cc565b810181811067ffffffffffffffff82111715610834576108336107dd565b5b80604052505050565b60006108476107ae565b9050610853828261080c565b919050565b600067ffffffffffffffff821115610873576108726107dd565b5b61087c826107cc565b9050602081019050919050565b82818337600083830152505050565b60006108ab6108a684610858565b61083d565b9050828152602081018484840111156108c7576108c66107c7565b5b6108d2848285610889565b509392505050565b600082601f8301126108ef576108ee6107c2565b5b81356108ff848260208601610898565b91505092915050565b60006020828403121561091e5761091d6107b8565b5b600082013567ffffffffffffffff81111561093c5761093b6107bd565b5b610948848285016108da565b91505092915050565b600081519050919050565b600082825260208201905092915050565b60005b8381101561098b578082015181840152602081019050610970565b60008484015250505050565b60006109a282610951565b6109ac818561095c565b93506109bc81856020860161096d565b6109c5816107cc565b840191505092915050565b600073ffffffffffffffffffffffffffffffffffffffff82169050919050565b60006109fb826109d0565b9050919050565b610a0b816109f0565b82525050565b6000819050919050565b610a2481610a11565b82525050565b60008115159050919050565b610a3f81610a2a565b82525050565b600060a0820190508181036000830152610a5f8188610997565b9050610a6e6020830187610a02565b610a7b6040830186610a02565b610a886060830185610a1b565b610a956080830184610a36565b9695505050505050565b6000602082019050610ab46000830184610a36565b92915050565b610ac3816109f0565b8114610ace57600080fd5b50565b600081359050610ae081610aba565b92915050565b600080600060608486031215610aff57610afe6107b8565b5b600084013567ffffffffffffffff811115610b1d57610b1c6107bd565b5b610b29868287016108da565b9350506020610b3a86828701610ad1565b9250506040610b4b86828701610ad1565b9150509250925092565b6000602082019050610b6a6000830184610a02565b92915050565b7f4e487b7100000000000000000000000000000000000000000000000000000000600052602260045260246000fd5b60006002820490506001821680610bb757607f821691505b602082108103610bca57610bc9610b70565b5b50919050565b600081905092915050565b6000610be682610951565b610bf08185610bd0565b9350610c0081856020860161096d565b80840191505092915050565b6000610c188284610bdb565b915081905092915050565b7f4f6e6c792061646d696e2063616e2063616c6c20746869732066756e6374696f60008201527f6e2e000000000000000000000000000000000000000000000000000000000000602082015250565b6000610c7f60228361095c565b9150610c8a82610c23565b604082019050919050565b60006020820190508181036000830152610cae81610c72565b9050919050565b7f436f6e747261637420666f722074686973206d61746368696e6720494420697360008201527f20616c7265616479207369676e65642e00000000000000000000000000000000602082015250565b6000610d1160308361095c565b9150610d1c82610cb5565b604082019050919050565b60006020820190508181036000830152610d4081610d04565b9050919050565b7f456c6465726c792045564d20616464726573732063616e6e6f74206265207a6560008201527f726f2e0000000000000000000000000000000000000000000000000000000000602082015250565b6000610da360238361095c565b9150610dae82610d47565b604082019050919050565b60006020820190508181036000830152610dd281610d96565b9050919050565b7f4e757273652045564d20616464726573732063616e6e6f74206265207a65726f60008201527f2e00000000000000000000000000000000000000000000000000000000000000602082015250565b6000610e3560218361095c565b9150610e4082610dd9565b604082019050919050565b60006020820190508181036000830152610e6481610e28565b9050919050565b60008190508160005260206000209050919050565b60006020601f8301049050919050565b600082821b905092915050565b600060088302610ecd7fffffffffffffffffffffffffffffffffffffffffffffffffffffffffffffffff82610e90565b610ed78683610e90565b95508019841693508086168417925050509392505050565b6000819050919050565b6000610f14610f0f610f0a84610a11565b610eef565b610a11565b9050919050565b6000819050919050565b610f2e83610ef9565b610f42610f3a82610f1b565b848454610e9d565b825550505050565b600090565b610f57610f4a565b610f62818484610f25565b505050565b5b81811015610f8657610f7b600082610f4f565b600181019050610f68565b5050565b601f821115610fcb57610f9c81610e6b565b610fa584610e80565b81016020851015610fb4578190505b610fc8610fc085610e80565b830182610f67565b50505b505050565b600082821c905092915050565b6000610fee60001984600802610fd0565b1980831691505092915050565b60006110078383610fdd565b9150826002028217905092915050565b61102082610951565b67ffffffffffffffff811115611039576110386107dd565b5b6110438254610b9f565b61104e828285610f8a565b600060209050601f831160018114611081576000841561106f578287015190505b6110798582610ffb565b8655506110e1565b601f19841661108f86610e6b565b60005b828110156110b757848901518255600182019150602085019450602081019050611092565b868310156110d457848901516110d0601f891682610fdd565b8355505b6001600288020188555050505b505050505050565b60006020820190506110fe6000830184610a1b565b9291505056fea2646970667358221220a53da6c44339ff035fcd03231803d4a16b51c2b764938be9e1fefd92571ace0064736f6c634300081c0033",
  "linkReferences": {},
  "deployedLinkReferences": {}
}